{
  "_format": "hh-sol-artifact-1",
  "contractName": "SupplyChain",
  "sourceName": "contracts/SupplyChain.sol",
  "abi": [
    {
      "inputs": [],
      "stateMutability": "nonpayable",
      "type": "constructor"
    },
    {
      "anonymous": false,
      "inputs": [
        {
          "indexed": true,
          "internalType": "uint256",
          "name": "shipmentId",
          "type": "uint256"
        },
        {
          "indexed": true,
          "internalType": "address",
          "name": "vendor",
          "type": "address"
        },
        {
          "indexed": false,
          "internalType": "address",
          "name": "customer",
          "type": "address"
        },
        {
          "indexed": true,
          "internalType": "address",
          "name": "deliveryHub",
          "type": "address"
        }
      ],
      "name": "ShipmentCreated",
      "type": "event"
    },
    {
      "anonymous": false,
      "inputs": [
        {
          "indexed": true,
          "internalType": "uint256",
          "name": "shipmentId",
          "type": "uint256"
        },
        {
          "indexed": false,
          "internalType": "enum SupplyChain.ShipmentStatus",
          "name": "newStatus",
          "type": "uint8"
        }
      ],
      "name": "ShipmentStatusUpdated",
      "type": "event"
    },
    {
      "anonymous": false,
      "inputs": [
        {
          "indexed": true,
          "internalType": "address",
          "name": "userAddress",
          "type": "address"
        },
        {
          "indexed": false,
          "internalType": "enum SupplyChain.Role",
          "name": "role",
          "type": "uint8"
        }
      ],
      "name": "UserApproved",
      "type": "event"
    },
    {
      "anonymous": false,
      "inputs": [
        {
          "indexed": true,
          "internalType": "address",
          "name": "userAddress",
          "type": "address"
        },
        {
          "indexed": false,
          "internalType": "string",
          "name": "name",
          "type": "string"
        },
        {
          "indexed": false,
          "internalType": "enum SupplyChain.Role",
          "name": "role",
          "type": "uint8"
        }
      ],
      "name": "UserRegistered",
      "type": "event"
    },
    {
      "inputs": [],
      "name": "admin",
      "outputs": [
        {
          "internalType": "address",
          "name": "",
          "type": "address"
        }
      ],
      "stateMutability": "view",
      "type": "function"
    },
    {
      "inputs": [
        {
          "internalType": "address",
          "name": "_userAddress",
          "type": "address"
        }
      ],
      "name": "approveUser",
      "outputs": [],
      "stateMutability": "nonpayable",
      "type": "function"
    },
    {
      "inputs": [
        {
          "internalType": "string",
          "name": "_productName",
          "type": "string"
        },
        {
          "internalType": "address",
          "name": "_customer",
          "type": "address"
        },
        {
          "internalType": "address",
          "name": "_deliveryHub",
          "type": "address"
        }
      ],
      "name": "createShipment",
      "outputs": [],
      "stateMutability": "nonpayable",
      "type": "function"
    },
    {
      "inputs": [
        {
          "internalType": "address",
          "name": "",
          "type": "address"
        },
        {
          "internalType": "uint256",
          "name": "",
          "type": "uint256"
        }
      ],
      "name": "deliveryHubShipments",
      "outputs": [
        {
          "internalType": "uint256",
          "name": "",
          "type": "uint256"
        }
      ],
      "stateMutability": "view",
      "type": "function"
    },
    {
      "inputs": [
        {
          "internalType": "address",
          "name": "_hubAddress",
          "type": "address"
        }
      ],
      "name": "getDeliveryHubShipmentIds",
      "outputs": [
        {
          "internalType": "uint256[]",
          "name": "",
          "type": "uint256[]"
        }
      ],
      "stateMutability": "view",
      "type": "function"
    },
    {
      "inputs": [],
      "name": "getPendingDeliveryHubs",
      "outputs": [
        {
          "internalType": "address[]",
          "name": "",
          "type": "address[]"
        }
      ],
      "stateMutability": "view",
      "type": "function"
    },
    {
      "inputs": [],
      "name": "getPendingVendors",
      "outputs": [
        {
          "internalType": "address[]",
          "name": "",
          "type": "address[]"
        }
      ],
      "stateMutability": "view",
      "type": "function"
    },
    {
      "inputs": [
        {
          "internalType": "address",
          "name": "_userAddress",
          "type": "address"
        }
      ],
      "name": "getRole",
      "outputs": [
        {
          "internalType": "enum SupplyChain.Role",
          "name": "",
          "type": "uint8"
        }
      ],
      "stateMutability": "view",
      "type": "function"
    },
    {
      "inputs": [
        {
          "internalType": "uint256",
          "name": "_shipmentId",
          "type": "uint256"
        }
      ],
      "name": "getShipmentDetails",
      "outputs": [
        {
          "components": [
            {
              "internalType": "uint256",
              "name": "id",
              "type": "uint256"
            },
            {
              "internalType": "string",
              "name": "productName",
              "type": "string"
            },
            {
              "internalType": "address",
              "name": "vendor",
              "type": "address"
            },
            {
              "internalType": "address",
              "name": "customer",
              "type": "address"
            },
            {
              "internalType": "address",
              "name": "deliveryHub",
              "type": "address"
            },
            {
              "internalType": "enum SupplyChain.ShipmentStatus",
              "name": "status",
              "type": "uint8"
            },
            {
              "internalType": "uint256",
              "name": "createdAt",
              "type": "uint256"
            },
            {
              "internalType": "uint256",
              "name": "lastUpdatedAt",
              "type": "uint256"
            }
          ],
          "internalType": "struct SupplyChain.Shipment",
          "name": "",
          "type": "tuple"
        }
      ],
      "stateMutability": "view",
      "type": "function"
    },
    {
      "inputs": [
        {
          "internalType": "address",
          "name": "_userAddress",
          "type": "address"
        }
      ],
      "name": "getUserInfo",
      "outputs": [
        {
          "internalType": "string",
          "name": "name",
          "type": "string"
        },
        {
          "internalType": "bool",
          "name": "isApproved",
          "type": "bool"
        }
      ],
      "stateMutability": "view",
      "type": "function"
    },
    {
      "inputs": [
        {
          "internalType": "uint256",
          "name": "",
          "type": "uint256"
        }
      ],
      "name": "pendingDeliveryHubList",
      "outputs": [
        {
          "internalType": "address",
          "name": "",
          "type": "address"
        }
      ],
      "stateMutability": "view",
      "type": "function"
    },
    {
      "inputs": [
        {
          "internalType": "uint256",
          "name": "",
          "type": "uint256"
        }
      ],
      "name": "pendingVendorList",
      "outputs": [
        {
          "internalType": "address",
          "name": "",
          "type": "address"
        }
      ],
      "stateMutability": "view",
      "type": "function"
    },
    {
      "inputs": [
        {
          "internalType": "string",
          "name": "_name",
          "type": "string"
        }
      ],
      "name": "registerDeliveryHub",
      "outputs": [],
      "stateMutability": "nonpayable",
      "type": "function"
    },
    {
      "inputs": [
        {
          "internalType": "string",
          "name": "_name",
          "type": "string"
        }
      ],
      "name": "registerVendor",
      "outputs": [],
      "stateMutability": "nonpayable",
      "type": "function"
    },
    {
      "inputs": [],
      "name": "shipmentCounter",
      "outputs": [
        {
          "internalType": "uint256",
          "name": "",
          "type": "uint256"
        }
      ],
      "stateMutability": "view",
      "type": "function"
    },
    {
      "inputs": [
        {
          "internalType": "uint256",
          "name": "",
          "type": "uint256"
        }
      ],
      "name": "shipments",
      "outputs": [
        {
          "internalType": "uint256",
          "name": "id",
          "type": "uint256"
        },
        {
          "internalType": "string",
          "name": "productName",
          "type": "string"
        },
        {
          "internalType": "address",
          "name": "vendor",
          "type": "address"
        },
        {
          "internalType": "address",
          "name": "customer",
          "type": "address"
        },
        {
          "internalType": "address",
          "name": "deliveryHub",
          "type": "address"
        },
        {
          "internalType": "enum SupplyChain.ShipmentStatus",
          "name": "status",
          "type": "uint8"
        },
        {
          "internalType": "uint256",
          "name": "createdAt",
          "type": "uint256"
        },
        {
          "internalType": "uint256",
          "name": "lastUpdatedAt",
          "type": "uint256"
        }
      ],
      "stateMutability": "view",
      "type": "function"
    },
    {
      "inputs": [
        {
          "internalType": "uint256",
          "name": "_shipmentId",
          "type": "uint256"
        }
      ],
      "name": "updateShipmentStatus",
      "outputs": [],
      "stateMutability": "nonpayable",
      "type": "function"
    },
    {
      "inputs": [
        {
          "internalType": "address",
          "name": "",
          "type": "address"
        }
      ],
      "name": "users",
      "outputs": [
        {
          "internalType": "string",
          "name": "name",
          "type": "string"
        },
        {
          "internalType": "address",
          "name": "walletAddress",
          "type": "address"
        },
        {
          "internalType": "bool",
          "name": "isApproved",
          "type": "bool"
        },
        {
          "internalType": "enum SupplyChain.Role",
          "name": "role",
          "type": "uint8"
        }
      ],
      "stateMutability": "view",
      "type": "function"
    }
  ],
  "bytecode": "0x60a06040523480156200001157600080fd5b50736f32280a2c8bd47fadc5732c55dcadddef6624ec73ffffffffffffffffffffffffffffffffffffffff1660808173ffffffffffffffffffffffffffffffffffffffff168152505060405180608001604052806040518060400160405280600581526020017f41646d696e000000000000000000000000000000000000000000000000000000815250815260200160805173ffffffffffffffffffffffffffffffffffffffff16815260200160011515815260200160016003811115620000de57620000dd620001dd565b5b8152506001600060805173ffffffffffffffffffffffffffffffffffffffff1673ffffffffffffffffffffffffffffffffffffffff168152602001908152602001600020600082015181600001908162000139919062000486565b5060208201518160010160006101000a81548173ffffffffffffffffffffffffffffffffffffffff021916908373ffffffffffffffffffffffffffffffffffffffff16021790555060408201518160010160146101000a81548160ff02191690831515021790555060608201518160010160156101000a81548160ff02191690836003811115620001cf57620001ce620001dd565b5b02179055509050506200056d565b7f4e487b7100000000000000000000000000000000000000000000000000000000600052602160045260246000fd5b600081519050919050565b7f4e487b7100000000000000000000000000000000000000000000000000000000600052604160045260246000fd5b7f4e487b7100000000000000000000000000000000000000000000000000000000600052602260045260246000fd5b600060028204905060018216806200028e57607f821691505b602082108103620002a457620002a362000246565b5b50919050565b60008190508160005260206000209050919050565b60006020601f8301049050919050565b600082821b905092915050565b6000600883026200030e7fffffffffffffffffffffffffffffffffffffffffffffffffffffffffffffffff82620002cf565b6200031a8683620002cf565b95508019841693508086168417925050509392505050565b6000819050919050565b6000819050919050565b600062000367620003616200035b8462000332565b6200033c565b62000332565b9050919050565b6000819050919050565b620003838362000346565b6200039b62000392826200036e565b848454620002dc565b825550505050565b600090565b620003b2620003a3565b620003bf81848462000378565b505050565b5b81811015620003e757620003db600082620003a8565b600181019050620003c5565b5050565b601f82111562000436576200040081620002aa565b6200040b84620002bf565b810160208510156200041b578190505b620004336200042a85620002bf565b830182620003c4565b50505b505050565b600082821c905092915050565b60006200045b600019846008026200043b565b1980831691505092915050565b600062000476838362000448565b9150826002028217905092915050565b62000491826200020c565b67ffffffffffffffff811115620004ad57620004ac62000217565b5b620004b9825462000275565b620004c6828285620003eb565b600060209050601f831160018114620004fe5760008415620004e9578287015190505b620004f5858262000468565b86555062000565565b601f1984166200050e86620002aa565b60005b82811015620005385784890151825560018201915060208501945060208101905062000511565b8683101562000558578489015162000554601f89168262000448565b8355505b6001600288020188555050505b505050505050565b6080516132cc620005896000396000611fbb01526132cc6000f3fe608060405234801561001057600080fd5b50600436106101165760003560e01c80637ecda97d116100a2578063d624fdb611610071578063d624fdb614610324578063e538109a14610340578063f851a4401461035c578063f8fa52931461037a578063fce2a91e146103aa57610116565b80637ecda97d1461028757806385e3e3c6146102a357806399689c01146102d3578063a87430ba146102f157610116565b806344276733116100e957806344276733146101bc5780634647f9da146101ec57806359ee32e61461020a5780636386c1c714610226578063693d70aa1461025757610116565b8063066674291461011b578063139f89bc146101395780632ac08a9314610155578063424c30111461018c575b600080fd5b6101236103da565b60405161013091906121d6565b60405180910390f35b610153600480360381019061014e9190612242565b610468565b005b61016f600480360381019061016a9190612242565b6107da565b604051610183989796959493929190612394565b60405180910390f35b6101a660048036038101906101a19190612242565b610917565b6040516101b39190612419565b60405180910390f35b6101d660048036038101906101d19190612460565b610956565b6040516101e391906124d5565b60405180910390f35b6101f46109af565b60405161020191906124f0565b60405180910390f35b610224600480360381019061021f9190612640565b6109b5565b005b610240600480360381019061023b9190612460565b610c5d565b60405161024e9291906126a4565b60405180910390f35b610271600480360381019061026c9190612242565b610d4f565b60405161027e91906127ec565b60405180910390f35b6102a1600480360381019061029c919061280e565b610fbb565b005b6102bd60048036038101906102b89190612460565b6114a3565b6040516102ca919061292c565b60405180910390f35b6102db61153a565b6040516102e891906121d6565b60405180910390f35b61030b60048036038101906103069190612460565b6115c8565b60405161031b949392919061294e565b60405180910390f35b61033e60048036038101906103399190612460565b6116ba565b005b61035a60048036038101906103559190612640565b611d10565b005b610364611fb9565b6040516103719190612419565b60405180910390f35b610394600480360381019061038f9190612242565b611fdd565b6040516103a19190612419565b60405180910390f35b6103c460048036038101906103bf919061299a565b61201c565b6040516103d191906124f0565b60405180910390f35b6060600480548060200260200160405190810160405280929190818152602001828054801561045e57602002820191906000526020600020905b8160009054906101000a900473ffffffffffffffffffffffffffffffffffffffff1673ffffffffffffffffffffffffffffffffffffffff1681526020019060010190808311610414575b5050505050905090565b803373ffffffffffffffffffffffffffffffffffffffff166002600083815260200190815260200160002060040160009054906101000a900473ffffffffffffffffffffffffffffffffffffffff1673ffffffffffffffffffffffffffffffffffffffff161461050d576040517f08c379a000000000000000000000000000000000000000000000000000000000815260040161050490612a4c565b60405180910390fd5b6003808111156105205761051f61231d565b5b600160003373ffffffffffffffffffffffffffffffffffffffff1673ffffffffffffffffffffffffffffffffffffffff16815260200190815260200160002060010160159054906101000a900460ff1660038111156105825761058161231d565b5b1480156105db5750600160003373ffffffffffffffffffffffffffffffffffffffff1673ffffffffffffffffffffffffffffffffffffffff16815260200190815260200160002060010160149054906101000a900460ff165b61061a576040517f08c379a000000000000000000000000000000000000000000000000000000000815260040161061190612ade565b60405180910390fd5b60006002600084815260200190815260200160002090506002808111156106445761064361231d565b5b8160040160149054906101000a900460ff1660028111156106685761066761231d565b5b036106a8576040517f08c379a000000000000000000000000000000000000000000000000000000000815260040161069f90612b4a565b60405180910390fd5b600060028111156106bc576106bb61231d565b5b8160040160149054906101000a900460ff1660028111156106e0576106df61231d565b5b036107175760018160040160146101000a81548160ff0219169083600281111561070d5761070c61231d565b5b0217905550610783565b6001600281111561072b5761072a61231d565b5b8160040160149054906101000a900460ff16600281111561074f5761074e61231d565b5b036107825760028160040160146101000a81548160ff0219169083600281111561077c5761077b61231d565b5b02179055505b5b428160060181905550827f8e16b4336dc88d11f2b19383604580b7fc6349df052bc9232d52ce1a40df6c4d8260040160149054906101000a900460ff166040516107cd9190612b6a565b60405180910390a2505050565b600260205280600052604060002060009150905080600001549080600101805461080390612bb4565b80601f016020809104026020016040519081016040528092919081815260200182805461082f90612bb4565b801561087c5780601f106108515761010080835404028352916020019161087c565b820191906000526020600020905b81548152906001019060200180831161085f57829003601f168201915b5050505050908060020160009054906101000a900473ffffffffffffffffffffffffffffffffffffffff16908060030160009054906101000a900473ffffffffffffffffffffffffffffffffffffffff16908060040160009054906101000a900473ffffffffffffffffffffffffffffffffffffffff16908060040160149054906101000a900460ff16908060050154908060060154905088565b6005818154811061092757600080fd5b906000526020600020016000915054906101000a900473ffffffffffffffffffffffffffffffffffffffff1681565b6000600160008373ffffffffffffffffffffffffffffffffffffffff1673ffffffffffffffffffffffffffffffffffffffff16815260200190815260200160002060010160159054906101000a900460ff169050919050565b60005481565b600060038111156109c9576109c861231d565b5b600160003373ffffffffffffffffffffffffffffffffffffffff1673ffffffffffffffffffffffffffffffffffffffff16815260200190815260200160002060010160159054906101000a900460ff166003811115610a2b57610a2a61231d565b5b14610a6b576040517f08c379a0000000000000000000000000000000000000000000000000000000008152600401610a6290612c31565b60405180910390fd5b60405180608001604052808281526020013373ffffffffffffffffffffffffffffffffffffffff168152602001600015158152602001600380811115610ab457610ab361231d565b5b815250600160003373ffffffffffffffffffffffffffffffffffffffff1673ffffffffffffffffffffffffffffffffffffffff1681526020019081526020016000206000820151816000019081610b0b9190612dfd565b5060208201518160010160006101000a81548173ffffffffffffffffffffffffffffffffffffffff021916908373ffffffffffffffffffffffffffffffffffffffff16021790555060408201518160010160146101000a81548160ff02191690831515021790555060608201518160010160156101000a81548160ff02191690836003811115610b9e57610b9d61231d565b5b02179055509050506005339080600181540180825580915050600190039060005260206000200160009091909190916101000a81548173ffffffffffffffffffffffffffffffffffffffff021916908373ffffffffffffffffffffffffffffffffffffffff1602179055503373ffffffffffffffffffffffffffffffffffffffff167fc2e5d5da58bd71d1a2d14cdef02a4256d971b728088f8190d067ccfbae3bd73e826003604051610c52929190612ecf565b60405180910390a250565b6060600080600160008573ffffffffffffffffffffffffffffffffffffffff1673ffffffffffffffffffffffffffffffffffffffff1681526020019081526020016000209050806000018160010160149054906101000a900460ff16818054610cc590612bb4565b80601f0160208091040260200160405190810160405280929190818152602001828054610cf190612bb4565b8015610d3e5780601f10610d1357610100808354040283529160200191610d3e565b820191906000526020600020905b815481529060010190602001808311610d2157829003601f168201915b505050505091509250925050915091565b610d5761204d565b600082118015610d6957506000548211155b610da8576040517f08c379a0000000000000000000000000000000000000000000000000000000008152600401610d9f90612f4b565b60405180910390fd5b600260008381526020019081526020016000206040518061010001604052908160008201548152602001600182018054610de190612bb4565b80601f0160208091040260200160405190810160405280929190818152602001828054610e0d90612bb4565b8015610e5a5780601f10610e2f57610100808354040283529160200191610e5a565b820191906000526020600020905b815481529060010190602001808311610e3d57829003601f168201915b505050505081526020016002820160009054906101000a900473ffffffffffffffffffffffffffffffffffffffff1673ffffffffffffffffffffffffffffffffffffffff1673ffffffffffffffffffffffffffffffffffffffff1681526020016003820160009054906101000a900473ffffffffffffffffffffffffffffffffffffffff1673ffffffffffffffffffffffffffffffffffffffff1673ffffffffffffffffffffffffffffffffffffffff1681526020016004820160009054906101000a900473ffffffffffffffffffffffffffffffffffffffff1673ffffffffffffffffffffffffffffffffffffffff1673ffffffffffffffffffffffffffffffffffffffff1681526020016004820160149054906101000a900460ff166002811115610f8a57610f8961231d565b5b6002811115610f9c57610f9b61231d565b5b8152602001600582015481526020016006820154815250509050919050565b60026003811115610fcf57610fce61231d565b5b600160003373ffffffffffffffffffffffffffffffffffffffff1673ffffffffffffffffffffffffffffffffffffffff16815260200190815260200160002060010160159054906101000a900460ff1660038111156110315761103061231d565b5b14801561108a5750600160003373ffffffffffffffffffffffffffffffffffffffff1673ffffffffffffffffffffffffffffffffffffffff16815260200190815260200160002060010160149054906101000a900460ff165b6110c9576040517f08c379a00000000000000000000000000000000000000000000000000000000081526004016110c090612fdd565b60405180910390fd5b6003808111156110dc576110db61231d565b5b600160008373ffffffffffffffffffffffffffffffffffffffff1673ffffffffffffffffffffffffffffffffffffffff16815260200190815260200160002060010160159054906101000a900460ff16600381111561113e5761113d61231d565b5b1480156111975750600160008273ffffffffffffffffffffffffffffffffffffffff1673ffffffffffffffffffffffffffffffffffffffff16815260200190815260200160002060010160149054906101000a900460ff165b6111d6576040517f08c379a00000000000000000000000000000000000000000000000000000000081526004016111cd9061306f565b60405180910390fd5b6000808154809291906111e8906130be565b91905055506000805490506040518061010001604052808281526020018581526020013373ffffffffffffffffffffffffffffffffffffffff1681526020018473ffffffffffffffffffffffffffffffffffffffff1681526020018373ffffffffffffffffffffffffffffffffffffffff168152602001600060028111156112735761127261231d565b5b815260200142815260200142815250600260008381526020019081526020016000206000820151816000015560208201518160010190816112b49190612dfd565b5060408201518160020160006101000a81548173ffffffffffffffffffffffffffffffffffffffff021916908373ffffffffffffffffffffffffffffffffffffffff16021790555060608201518160030160006101000a81548173ffffffffffffffffffffffffffffffffffffffff021916908373ffffffffffffffffffffffffffffffffffffffff16021790555060808201518160040160006101000a81548173ffffffffffffffffffffffffffffffffffffffff021916908373ffffffffffffffffffffffffffffffffffffffff16021790555060a08201518160040160146101000a81548160ff021916908360028111156113b5576113b461231d565b5b021790555060c0820151816005015560e08201518160060155905050600360008373ffffffffffffffffffffffffffffffffffffffff1673ffffffffffffffffffffffffffffffffffffffff1681526020019081526020016000208190806001815401808255809150506001900390600052602060002001600090919091909150558173ffffffffffffffffffffffffffffffffffffffff163373ffffffffffffffffffffffffffffffffffffffff16827fe565147ccaec7afa54f62121385487ec6693c13752f3f9f9ae60a157f8fc3e77866040516114959190612419565b60405180910390a450505050565b6060600360008373ffffffffffffffffffffffffffffffffffffffff1673ffffffffffffffffffffffffffffffffffffffff16815260200190815260200160002080548060200260200160405190810160405280929190818152602001828054801561152e57602002820191906000526020600020905b81548152602001906001019080831161151a575b50505050509050919050565b606060058054806020026020016040519081016040528092919081815260200182805480156115be57602002820191906000526020600020905b8160009054906101000a900473ffffffffffffffffffffffffffffffffffffffff1673ffffffffffffffffffffffffffffffffffffffff1681526020019060010190808311611574575b5050505050905090565b60016020528060005260406000206000915090508060000180546115eb90612bb4565b80601f016020809104026020016040519081016040528092919081815260200182805461161790612bb4565b80156116645780601f1061163957610100808354040283529160200191611664565b820191906000526020600020905b81548152906001019060200180831161164757829003601f168201915b5050505050908060010160009054906101000a900473ffffffffffffffffffffffffffffffffffffffff16908060010160149054906101000a900460ff16908060010160159054906101000a900460ff16905084565b600160038111156116ce576116cd61231d565b5b600160003373ffffffffffffffffffffffffffffffffffffffff1673ffffffffffffffffffffffffffffffffffffffff16815260200190815260200160002060010160159054906101000a900460ff1660038111156117305761172f61231d565b5b14611770576040517f08c379a000000000000000000000000000000000000000000000000000000000815260040161176790613178565b60405180910390fd5b600160008273ffffffffffffffffffffffffffffffffffffffff1673ffffffffffffffffffffffffffffffffffffffff16815260200190815260200160002060010160149054906101000a900460ff1615611800576040517f08c379a00000000000000000000000000000000000000000000000000000000081526004016117f7906131e4565b60405180910390fd5b60018060008373ffffffffffffffffffffffffffffffffffffffff1673ffffffffffffffffffffffffffffffffffffffff16815260200190815260200160002060010160146101000a81548160ff0219169083151502179055506002600381111561186e5761186d61231d565b5b600160008373ffffffffffffffffffffffffffffffffffffffff1673ffffffffffffffffffffffffffffffffffffffff16815260200190815260200160002060010160159054906101000a900460ff1660038111156118d0576118cf61231d565b5b03611a675760005b600480549050811015611a61578173ffffffffffffffffffffffffffffffffffffffff16600482815481106119105761190f613204565b5b9060005260206000200160009054906101000a900473ffffffffffffffffffffffffffffffffffffffff1673ffffffffffffffffffffffffffffffffffffffff1603611a4e576004600160048054905061196a9190613233565b8154811061197b5761197a613204565b5b9060005260206000200160009054906101000a900473ffffffffffffffffffffffffffffffffffffffff16600482815481106119ba576119b9613204565b5b9060005260206000200160006101000a81548173ffffffffffffffffffffffffffffffffffffffff021916908373ffffffffffffffffffffffffffffffffffffffff1602179055506004805480611a1457611a13613267565b5b6001900381819060005260206000200160006101000a81549073ffffffffffffffffffffffffffffffffffffffff02191690559055611a61565b8080611a59906130be565b9150506118d8565b50611c70565b600380811115611a7a57611a7961231d565b5b600160008373ffffffffffffffffffffffffffffffffffffffff1673ffffffffffffffffffffffffffffffffffffffff16815260200190815260200160002060010160159054906101000a900460ff166003811115611adc57611adb61231d565b5b03611c6f5760005b600580549050811015611c6d578173ffffffffffffffffffffffffffffffffffffffff1660058281548110611b1c57611b1b613204565b5b9060005260206000200160009054906101000a900473ffffffffffffffffffffffffffffffffffffffff1673ffffffffffffffffffffffffffffffffffffffff1603611c5a5760056001600580549050611b769190613233565b81548110611b8757611b86613204565b5b9060005260206000200160009054906101000a900473ffffffffffffffffffffffffffffffffffffffff1660058281548110611bc657611bc5613204565b5b9060005260206000200160006101000a81548173ffffffffffffffffffffffffffffffffffffffff021916908373ffffffffffffffffffffffffffffffffffffffff1602179055506005805480611c2057611c1f613267565b5b6001900381819060005260206000200160006101000a81549073ffffffffffffffffffffffffffffffffffffffff02191690559055611c6d565b8080611c65906130be565b915050611ae4565b505b5b8073ffffffffffffffffffffffffffffffffffffffff167f38d322dec3bc5278930f4329092943a581fd9429c40a86e190aa4ff30c9ef46f600160008473ffffffffffffffffffffffffffffffffffffffff1673ffffffffffffffffffffffffffffffffffffffff16815260200190815260200160002060010160159054906101000a900460ff16604051611d0591906124d5565b60405180910390a250565b60006003811115611d2457611d2361231d565b5b600160003373ffffffffffffffffffffffffffffffffffffffff1673ffffffffffffffffffffffffffffffffffffffff16815260200190815260200160002060010160159054906101000a900460ff166003811115611d8657611d8561231d565b5b14611dc6576040517f08c379a0000000000000000000000000000000000000000000000000000000008152600401611dbd90612c31565b60405180910390fd5b60405180608001604052808281526020013373ffffffffffffffffffffffffffffffffffffffff16815260200160001515815260200160026003811115611e1057611e0f61231d565b5b815250600160003373ffffffffffffffffffffffffffffffffffffffff1673ffffffffffffffffffffffffffffffffffffffff1681526020019081526020016000206000820151816000019081611e679190612dfd565b5060208201518160010160006101000a81548173ffffffffffffffffffffffffffffffffffffffff021916908373ffffffffffffffffffffffffffffffffffffffff16021790555060408201518160010160146101000a81548160ff02191690831515021790555060608201518160010160156101000a81548160ff02191690836003811115611efa57611ef961231d565b5b02179055509050506004339080600181540180825580915050600190039060005260206000200160009091909190916101000a81548173ffffffffffffffffffffffffffffffffffffffff021916908373ffffffffffffffffffffffffffffffffffffffff1602179055503373ffffffffffffffffffffffffffffffffffffffff167fc2e5d5da58bd71d1a2d14cdef02a4256d971b728088f8190d067ccfbae3bd73e826002604051611fae929190612ecf565b60405180910390a250565b7f000000000000000000000000000000000000000000000000000000000000000081565b60048181548110611fed57600080fd5b906000526020600020016000915054906101000a900473ffffffffffffffffffffffffffffffffffffffff1681565b6003602052816000526040600020818154811061203857600080fd5b90600052602060002001600091509150505481565b6040518061010001604052806000815260200160608152602001600073ffffffffffffffffffffffffffffffffffffffff168152602001600073ffffffffffffffffffffffffffffffffffffffff168152602001600073ffffffffffffffffffffffffffffffffffffffff168152602001600060028111156120d2576120d161231d565b5b815260200160008152602001600081525090565b600081519050919050565b600082825260208201905092915050565b6000819050602082019050919050565b600073ffffffffffffffffffffffffffffffffffffffff82169050919050565b600061213d82612112565b9050919050565b61214d81612132565b82525050565b600061215f8383612144565b60208301905092915050565b6000602082019050919050565b6000612183826120e6565b61218d81856120f1565b935061219883612102565b8060005b838110156121c95781516121b08882612153565b97506121bb8361216b565b92505060018101905061219c565b5085935050505092915050565b600060208201905081810360008301526121f08184612178565b905092915050565b6000604051905090565b600080fd5b600080fd5b6000819050919050565b61221f8161220c565b811461222a57600080fd5b50565b60008135905061223c81612216565b92915050565b60006020828403121561225857612257612202565b5b60006122668482850161222d565b91505092915050565b6122788161220c565b82525050565b600081519050919050565b600082825260208201905092915050565b60005b838110156122b857808201518184015260208101905061229d565b60008484015250505050565b6000601f19601f8301169050919050565b60006122e08261227e565b6122ea8185612289565b93506122fa81856020860161229a565b612303816122c4565b840191505092915050565b61231781612132565b82525050565b7f4e487b7100000000000000000000000000000000000000000000000000000000600052602160045260246000fd5b6003811061235d5761235c61231d565b5b50565b600081905061236e8261234c565b919050565b600061237e82612360565b9050919050565b61238e81612373565b82525050565b6000610100820190506123aa600083018b61226f565b81810360208301526123bc818a6122d5565b90506123cb604083018961230e565b6123d8606083018861230e565b6123e5608083018761230e565b6123f260a0830186612385565b6123ff60c083018561226f565b61240c60e083018461226f565b9998505050505050505050565b600060208201905061242e600083018461230e565b92915050565b61243d81612132565b811461244857600080fd5b50565b60008135905061245a81612434565b92915050565b60006020828403121561247657612475612202565b5b60006124848482850161244b565b91505092915050565b6004811061249e5761249d61231d565b5b50565b60008190506124af8261248d565b919050565b60006124bf826124a1565b9050919050565b6124cf816124b4565b82525050565b60006020820190506124ea60008301846124c6565b92915050565b6000602082019050612505600083018461226f565b92915050565b600080fd5b600080fd5b7f4e487b7100000000000000000000000000000000000000000000000000000000600052604160045260246000fd5b61254d826122c4565b810181811067ffffffffffffffff8211171561256c5761256b612515565b5b80604052505050565b600061257f6121f8565b905061258b8282612544565b919050565b600067ffffffffffffffff8211156125ab576125aa612515565b5b6125b4826122c4565b9050602081019050919050565b82818337600083830152505050565b60006125e36125de84612590565b612575565b9050828152602081018484840111156125ff576125fe612510565b5b61260a8482856125c1565b509392505050565b600082601f8301126126275761262661250b565b5b81356126378482602086016125d0565b91505092915050565b60006020828403121561265657612655612202565b5b600082013567ffffffffffffffff81111561267457612673612207565b5b61268084828501612612565b91505092915050565b60008115159050919050565b61269e81612689565b82525050565b600060408201905081810360008301526126be81856122d5565b90506126cd6020830184612695565b9392505050565b6126dd8161220c565b82525050565b600082825260208201905092915050565b60006126ff8261227e565b61270981856126e3565b935061271981856020860161229a565b612722816122c4565b840191505092915050565b61273681612373565b82525050565b60006101008301600083015161275560008601826126d4565b506020830151848203602086015261276d82826126f4565b91505060408301516127826040860182612144565b5060608301516127956060860182612144565b5060808301516127a86080860182612144565b5060a08301516127bb60a086018261272d565b5060c08301516127ce60c08601826126d4565b5060e08301516127e160e08601826126d4565b508091505092915050565b60006020820190508181036000830152612806818461273c565b905092915050565b60008060006060848603121561282757612826612202565b5b600084013567ffffffffffffffff81111561284557612844612207565b5b61285186828701612612565b93505060206128628682870161244b565b92505060406128738682870161244b565b9150509250925092565b600081519050919050565b600082825260208201905092915050565b6000819050602082019050919050565b60006128b583836126d4565b60208301905092915050565b6000602082019050919050565b60006128d98261287d565b6128e38185612888565b93506128ee83612899565b8060005b8381101561291f57815161290688826128a9565b9750612911836128c1565b9250506001810190506128f2565b5085935050505092915050565b6000602082019050818103600083015261294681846128ce565b905092915050565b6000608082019050818103600083015261296881876122d5565b9050612977602083018661230e565b6129846040830185612695565b61299160608301846124c6565b95945050505050565b600080604083850312156129b1576129b0612202565b5b60006129bf8582860161244b565b92505060206129d08582860161222d565b9150509250929050565b7f4f6e6c79207468652061737369676e65642064656c697665727920687562206360008201527f616e20757064617465207468697320736869706d656e74000000000000000000602082015250565b6000612a36603783612289565b9150612a41826129da565b604082019050919050565b60006020820190508181036000830152612a6581612a29565b9050919050565b7f55736572206973206e6f7420616e20617070726f7665642064656c697665727960008201527f2068756200000000000000000000000000000000000000000000000000000000602082015250565b6000612ac8602483612289565b9150612ad382612a6c565b604082019050919050565b60006020820190508181036000830152612af781612abb565b9050919050565b7f536869706d656e7420616c72656164792064656c697665726564000000000000600082015250565b6000612b34601a83612289565b9150612b3f82612afe565b602082019050919050565b60006020820190508181036000830152612b6381612b27565b9050919050565b6000602082019050612b7f6000830184612385565b92915050565b7f4e487b7100000000000000000000000000000000000000000000000000000000600052602260045260246000fd5b60006002820490506001821680612bcc57607f821691505b602082108103612bdf57612bde612b85565b5b50919050565b7f5573657220697320616c72656164792072656769737465726564000000000000600082015250565b6000612c1b601a83612289565b9150612c2682612be5565b602082019050919050565b60006020820190508181036000830152612c4a81612c0e565b9050919050565b60008190508160005260206000209050919050565b60006020601f8301049050919050565b600082821b905092915050565b600060088302612cb37fffffffffffffffffffffffffffffffffffffffffffffffffffffffffffffffff82612c76565b612cbd8683612c76565b95508019841693508086168417925050509392505050565b6000819050919050565b6000612cfa612cf5612cf08461220c565b612cd5565b61220c565b9050919050565b6000819050919050565b612d1483612cdf565b612d28612d2082612d01565b848454612c83565b825550505050565b600090565b612d3d612d30565b612d48818484612d0b565b505050565b5b81811015612d6c57612d61600082612d35565b600181019050612d4e565b5050565b601f821115612db157612d8281612c51565b612d8b84612c66565b81016020851015612d9a578190505b612dae612da685612c66565b830182612d4d565b50505b505050565b600082821c905092915050565b6000612dd460001984600802612db6565b1980831691505092915050565b6000612ded8383612dc3565b9150826002028217905092915050565b612e068261227e565b67ffffffffffffffff811115612e1f57612e1e612515565b5b612e298254612bb4565b612e34828285612d70565b600060209050601f831160018114612e675760008415612e55578287015190505b612e5f8582612de1565b865550612ec7565b601f198416612e7586612c51565b60005b82811015612e9d57848901518255600182019150602085019450602081019050612e78565b86831015612eba5784890151612eb6601f891682612dc3565b8355505b6001600288020188555050505b505050505050565b60006040820190508181036000830152612ee981856122d5565b9050612ef860208301846124c6565b9392505050565b7f496e76616c696420736869706d656e7420494400000000000000000000000000600082015250565b6000612f35601383612289565b9150612f4082612eff565b602082019050919050565b60006020820190508181036000830152612f6481612f28565b9050919050565b7f4f6e6c7920616e20617070726f7665642076656e646f722063616e207065726660008201527f6f726d207468697320616374696f6e0000000000000000000000000000000000602082015250565b6000612fc7602f83612289565b9150612fd282612f6b565b604082019050919050565b60006020820190508181036000830152612ff681612fba565b9050919050565b7f496e76616c6964206f7220756e617070726f7665642064656c6976657279206860008201527f7562000000000000000000000000000000000000000000000000000000000000602082015250565b6000613059602283612289565b915061306482612ffd565b604082019050919050565b600060208201905081810360008301526130888161304c565b9050919050565b7f4e487b7100000000000000000000000000000000000000000000000000000000600052601160045260246000fd5b60006130c98261220c565b91507fffffffffffffffffffffffffffffffffffffffffffffffffffffffffffffffff82036130fb576130fa61308f565b5b600182019050919050565b7f4f6e6c792061646d696e2063616e20706572666f726d2074686973206163746960008201527f6f6e000000000000000000000000000000000000000000000000000000000000602082015250565b6000613162602283612289565b915061316d82613106565b604082019050919050565b6000602082019050818103600083015261319181613155565b9050919050565b7f5573657220697320616c726561647920617070726f7665640000000000000000600082015250565b60006131ce601883612289565b91506131d982613198565b602082019050919050565b600060208201905081810360008301526131fd816131c1565b9050919050565b7f4e487b7100000000000000000000000000000000000000000000000000000000600052603260045260246000fd5b600061323e8261220c565b91506132498361220c565b92508282039050818111156132615761326061308f565b5b92915050565b7f4e487b7100000000000000000000000000000000000000000000000000000000600052603160045260246000fdfea264697066735822122008cea86fe54b393f61be29288c9bfb70e5758b899207e49a23000b2a7b67278b64736f6c63430008140033",
  "linkReferences": {},
  "deployedLinkReferences": {}
}